{
  "contractName": "RockPaperScissors",
  "abi": [
    {
      "constant": false,
      "inputs": [],
      "name": "renounceOwnership",
      "outputs": [],
      "payable": false,
      "stateMutability": "nonpayable",
      "type": "function"
    },
    {
      "constant": true,
      "inputs": [],
      "name": "owner",
      "outputs": [
        {
          "name": "",
          "type": "address"
        }
      ],
      "payable": false,
      "stateMutability": "view",
      "type": "function"
    },
    {
      "constant": true,
      "inputs": [],
      "name": "isOwner",
      "outputs": [
        {
          "name": "",
          "type": "bool"
        }
      ],
      "payable": false,
      "stateMutability": "view",
      "type": "function"
    },
    {
      "constant": false,
      "inputs": [
        {
          "name": "newOwner",
          "type": "address"
        }
      ],
      "name": "transferOwnership",
      "outputs": [],
      "payable": false,
      "stateMutability": "nonpayable",
      "type": "function"
    },
    {
      "anonymous": false,
      "inputs": [
        {
          "indexed": true,
          "name": "_result",
          "type": "uint256"
        },
        {
          "indexed": false,
          "name": "_sendAmount",
          "type": "uint256"
        }
      ],
      "name": "RpsResult",
      "type": "event"
    },
    {
      "anonymous": false,
      "inputs": [
        {
          "indexed": true,
          "name": "previousOwner",
          "type": "address"
        },
        {
          "indexed": true,
          "name": "newOwner",
          "type": "address"
        }
      ],
      "name": "OwnershipTransferred",
      "type": "event"
    },
    {
      "constant": false,
      "inputs": [
        {
          "name": "_account",
          "type": "address"
        }
      ],
      "name": "setDonationAddress",
      "outputs": [],
      "payable": false,
      "stateMutability": "nonpayable",
      "type": "function"
    },
    {
      "constant": true,
      "inputs": [],
      "name": "checkDonationAddress",
      "outputs": [
        {
          "name": "",
          "type": "address"
        }
      ],
      "payable": false,
      "stateMutability": "view",
      "type": "function"
    },
    {
      "constant": true,
      "inputs": [],
      "name": "getTotalAmountOfDonation",
      "outputs": [
        {
          "name": "",
          "type": "uint256"
        }
      ],
      "payable": false,
      "stateMutability": "view",
      "type": "function"
    },
    {
      "constant": true,
      "inputs": [
        {
          "name": "_price",
          "type": "uint256"
        }
      ],
      "name": "canStart",
      "outputs": [
        {
          "name": "",
          "type": "bool"
        }
      ],
      "payable": false,
      "stateMutability": "view",
      "type": "function"
    },
    {
      "constant": false,
      "inputs": [
        {
          "name": "_userHand",
          "type": "uint256"
        }
      ],
      "name": "rockPaperScissors",
      "outputs": [],
      "payable": true,
      "stateMutability": "payable",
      "type": "function"
    }
  ],
  "bytecode": "0x6080604052336000806101000a81548173ffffffffffffffffffffffffffffffffffffffff021916908373ffffffffffffffffffffffffffffffffffffffff1602179055506000809054906101000a900473ffffffffffffffffffffffffffffffffffffffff1673ffffffffffffffffffffffffffffffffffffffff16600073ffffffffffffffffffffffffffffffffffffffff167f8be0079c531659141344cd1fd0a4f28419497f9722a3daafe3b4186f6b6457e060405160405180910390a3610b86806100cf6000396000f300608060405260043610610099576000357c0100000000000000000000000000000000000000000000000000000000900463ffffffff168063288b9b671461009e578063296be0e5146100be5780636f48e79b14610103578063715018a6146101465780638da5cb5b1461015d5780638f32d59b146101b4578063c342f86f146101e3578063deb3bea41461023a578063f2fde38b14610265575b600080fd5b6100bc600480360381019080803590602001909291905050506102a8565b005b3480156100ca57600080fd5b506100e960048036038101908080359060200190929190505050610614565b604051808215151515815260200191505060405180910390f35b34801561010f57600080fd5b50610144600480360381019080803573ffffffffffffffffffffffffffffffffffffffff16906020019092919050505061065c565b005b34801561015257600080fd5b5061015b6106b3565b005b34801561016957600080fd5b50610172610785565b604051808273ffffffffffffffffffffffffffffffffffffffff1673ffffffffffffffffffffffffffffffffffffffff16815260200191505060405180910390f35b3480156101c057600080fd5b506101c96107ae565b604051808215151515815260200191505060405180910390f35b3480156101ef57600080fd5b506101f8610805565b604051808273ffffffffffffffffffffffffffffffffffffffff1673ffffffffffffffffffffffffffffffffffffffff16815260200191505060405180910390f35b34801561024657600080fd5b5061024f61082f565b6040518082815260200191505060405180910390f35b34801561027157600080fd5b506102a6600480360381019080803573ffffffffffffffffffffffffffffffffffffffff169060200190929190505050610839565b005b600080343373ffffffffffffffffffffffffffffffffffffffff16311015151561033a576040517f08c379a000000000000000000000000000000000000000000000000000000000815260040180806020018281038252601b8152602001807f596f7520646f6e2774206861766520656e6f756768206574682121000000000081525060200191505060405180910390fd5b610342610858565b915061034e8383610905565b905060018114156104ae57600160009054906101000a900473ffffffffffffffffffffffffffffffffffffffff1673ffffffffffffffffffffffffffffffffffffffff166108fc6103a960023461099190919063ffffffff16565b9081150290604051600060405180830381858888f193505050501580156103d4573d6000803e3d6000fd5b506103fd6103ec60023461099190919063ffffffff16565b6002546109bb90919063ffffffff16565b6002819055503373ffffffffffffffffffffffffffffffffffffffff166108fc61043160023461099190919063ffffffff16565b9081150290604051600060405180830381858888f1935050505015801561045c573d6000803e3d6000fd5b5060017ff25c262b318c47c5c099783ec6c59e401593851990b7b5cf202d226ad8c79ce461049460023461099190919063ffffffff16565b6040518082815260200191505060405180910390a261060f565b600281141561057957600160009054906101000a900473ffffffffffffffffffffffffffffffffffffffff1673ffffffffffffffffffffffffffffffffffffffff166108fc349081150290604051600060405180830381858888f1935050505015801561051f573d6000803e3d6000fd5b50610535346002546109bb90919063ffffffff16565b60028190555060027ff25c262b318c47c5c099783ec6c59e401593851990b7b5cf202d226ad8c79ce4346040518082815260200191505060405180910390a261060e565b6000811415610608573373ffffffffffffffffffffffffffffffffffffffff166108fc349081150290604051600060405180830381858888f193505050501580156105c8573d6000803e3d6000fd5b5060007ff25c262b318c47c5c099783ec6c59e401593851990b7b5cf202d226ad8c79ce460006040518082815260200191505060405180910390a261060d565b600080fd5b5b5b505050565b600061062a6002836109dc90919063ffffffff16565b3373ffffffffffffffffffffffffffffffffffffffff16311015156106525760019050610657565b600090505b919050565b6106646107ae565b151561066f57600080fd5b80600160006101000a81548173ffffffffffffffffffffffffffffffffffffffff021916908373ffffffffffffffffffffffffffffffffffffffff16021790555050565b6106bb6107ae565b15156106c657600080fd5b600073ffffffffffffffffffffffffffffffffffffffff166000809054906101000a900473ffffffffffffffffffffffffffffffffffffffff1673ffffffffffffffffffffffffffffffffffffffff167f8be0079c531659141344cd1fd0a4f28419497f9722a3daafe3b4186f6b6457e060405160405180910390a360008060006101000a81548173ffffffffffffffffffffffffffffffffffffffff021916908373ffffffffffffffffffffffffffffffffffffffff160217905550565b60008060009054906101000a900473ffffffffffffffffffffffffffffffffffffffff16905090565b60008060009054906101000a900473ffffffffffffffffffffffffffffffffffffffff1673ffffffffffffffffffffffffffffffffffffffff163373ffffffffffffffffffffffffffffffffffffffff1614905090565b6000600160009054906101000a900473ffffffffffffffffffffffffffffffffffffffff16905090565b6000600254905090565b6108416107ae565b151561084c57600080fd5b61085581610a1a565b50565b600080444260405160200180838152602001828152602001925050506040516020818303038152906040526040518082805190602001908083835b6020831015156108b85780518252602082019150602081019050602083039250610893565b6001836020036101000a03801982511681845116808217855250505050505090500191505060405180910390206001900490506108ff600382610b1490919063ffffffff16565b91505090565b60008183111561094f57610948600361093a600361092c8688610b3990919063ffffffff16565b6109bb90919063ffffffff16565b610b1490919063ffffffff16565b905061098b565b610988600361097a600361096c8787610b3990919063ffffffff16565b6109bb90919063ffffffff16565b610b1490919063ffffffff16565b90505b92915050565b6000806000831115156109a357600080fd5b82848115156109ae57fe5b0490508091505092915050565b60008082840190508381101515156109d257600080fd5b8091505092915050565b60008060008414156109f15760009150610a13565b8284029050828482811515610a0257fe5b04141515610a0f57600080fd5b8091505b5092915050565b600073ffffffffffffffffffffffffffffffffffffffff168173ffffffffffffffffffffffffffffffffffffffff1614151515610a5657600080fd5b8073ffffffffffffffffffffffffffffffffffffffff166000809054906101000a900473ffffffffffffffffffffffffffffffffffffffff1673ffffffffffffffffffffffffffffffffffffffff167f8be0079c531659141344cd1fd0a4f28419497f9722a3daafe3b4186f6b6457e060405160405180910390a3806000806101000a81548173ffffffffffffffffffffffffffffffffffffffff021916908373ffffffffffffffffffffffffffffffffffffffff16021790555050565b6000808214151515610b2557600080fd5b8183811515610b3057fe5b06905092915050565b600080838311151515610b4b57600080fd5b828403905080915050929150505600a165627a7a72305820336cf02c6d5794f2c7a1e0091cf313edc2d1f2d2bbcf1cdd9954cbb0010b38020029",
  "source": "pragma solidity ^0.4.24;\n\nimport '../node_modules/openzeppelin-solidity/contracts/ownership/Ownable.sol';\nimport '../node_modules/openzeppelin-solidity/contracts/math/SafeMath.sol';\n\ncontract RockPaperScissors is Ownable {\n\n  using SafeMath for uint;\n\n  address donationAddress;\n  uint totalAmountOfDonation;\n  event RpsResult(uint indexed _result, uint _sendAmount);\n\n  function setDonationAddress(address _account) external onlyOwner() {\n    donationAddress = _account;\n  }\n\n  // checkよりgetだな\n  function checkDonationAddress() external view returns(address) {\n    return donationAddress;\n  }\n\n  function getTotalAmountOfDonation() external view returns(uint) {\n    return totalAmountOfDonation;\n  }\n\n  modifier affordPay() {\n    require(msg.sender.balance >= msg.value, \"You don't have enough eth!!\");\n    _;\n  }\n\n  function canStart(uint _price) external view returns(bool) {\n    if (msg.sender.balance >= _price.mul(2)) {\n      return true;\n    } else {\n      return false;\n    }\n  }\n\n  function random() private view returns (uint) {\n    uint randomHash = uint(keccak256(abi.encodePacked(block.difficulty, now)));\n    return randomHash.mod(3);\n  }\n\n  function rpsCalc(uint _userHand, uint _randHand) private pure returns (uint) {\n    if (_userHand > _randHand) {\n      return (_userHand.sub(_randHand).add(3)).mod(3);\n    } else {\n      return (_randHand.sub(_userHand).add(3)).mod(3);\n    }\n  }\n\n  function rockPaperScissors(uint _userHand) external affordPay() payable {\n    uint randHand = random();\n    uint result = rpsCalc(_userHand, randHand);\n\n    if (result == 1) {\n      // LOSE\n      donationAddress.transfer(msg.value.div(2));\n      totalAmountOfDonation = totalAmountOfDonation.add(msg.value.div(2));\n      msg.sender.transfer(msg.value.div(2));\n      emit RpsResult(1, msg.value.div(2));\n    } else if (result == 2) {\n      // WIN\n      donationAddress.transfer(msg.value);\n      totalAmountOfDonation = totalAmountOfDonation.add(msg.value);\n      emit RpsResult(2, msg.value);\n    } else if (result == 0){\n      // DRAW\n      msg.sender.transfer(msg.value);\n      emit RpsResult(0, 0);\n    } else {\n      // if result is not 0,1,2 means Error.\n      revert();\n    }\n  }\n\n}\n",
  "sourcePath": "/mnt/c/react-apps/otokogi/contracts/RockPaperScissors.sol",
  "compiler": {
    "name": "solc",
    "version": "0.4.24+commit.e67f0147.Emscripten.clang"
  },
  "schemaVersion": "2.0.1",
  "updatedAt": "2018-10-29T01:22:08.980Z"
}