{
  "contractName": "RockPaperScissors",
  "abi": [
    {
      "constant": false,
      "inputs": [],
      "name": "renounceOwnership",
      "outputs": [],
      "payable": false,
      "stateMutability": "nonpayable",
      "type": "function"
    },
    {
      "constant": true,
      "inputs": [],
      "name": "owner",
      "outputs": [
        {
          "name": "",
          "type": "address"
        }
      ],
      "payable": false,
      "stateMutability": "view",
      "type": "function"
    },
    {
      "constant": false,
      "inputs": [
        {
          "name": "_newOwner",
          "type": "address"
        }
      ],
      "name": "transferOwnership",
      "outputs": [],
      "payable": false,
      "stateMutability": "nonpayable",
      "type": "function"
    },
    {
      "anonymous": false,
      "inputs": [
        {
          "indexed": true,
          "name": "_result",
          "type": "uint256"
        },
        {
          "indexed": false,
          "name": "_sendAmount",
          "type": "uint256"
        }
      ],
      "name": "RpsResult",
      "type": "event"
    },
    {
      "anonymous": false,
      "inputs": [
        {
          "indexed": true,
          "name": "previousOwner",
          "type": "address"
        }
      ],
      "name": "OwnershipRenounced",
      "type": "event"
    },
    {
      "anonymous": false,
      "inputs": [
        {
          "indexed": true,
          "name": "previousOwner",
          "type": "address"
        },
        {
          "indexed": true,
          "name": "newOwner",
          "type": "address"
        }
      ],
      "name": "OwnershipTransferred",
      "type": "event"
    },
    {
      "constant": false,
      "inputs": [
        {
          "name": "_account",
          "type": "address"
        }
      ],
      "name": "setDonationAddress",
      "outputs": [],
      "payable": false,
      "stateMutability": "nonpayable",
      "type": "function"
    },
    {
      "constant": true,
      "inputs": [],
      "name": "checkDonationAddress",
      "outputs": [
        {
          "name": "",
          "type": "address"
        }
      ],
      "payable": false,
      "stateMutability": "view",
      "type": "function"
    },
    {
      "constant": true,
      "inputs": [],
      "name": "getTotalAmountOfDonation",
      "outputs": [
        {
          "name": "",
          "type": "uint256"
        }
      ],
      "payable": false,
      "stateMutability": "view",
      "type": "function"
    },
    {
      "constant": true,
      "inputs": [
        {
          "name": "_price",
          "type": "uint256"
        }
      ],
      "name": "canStart",
      "outputs": [
        {
          "name": "",
          "type": "bool"
        }
      ],
      "payable": false,
      "stateMutability": "view",
      "type": "function"
    },
    {
      "constant": false,
      "inputs": [
        {
          "name": "_userHand",
          "type": "uint256"
        }
      ],
      "name": "rockPaperScissors",
      "outputs": [],
      "payable": true,
      "stateMutability": "payable",
      "type": "function"
    }
  ],
  "bytecode": "0x6080604052336000806101000a81548173ffffffffffffffffffffffffffffffffffffffff021916908373ffffffffffffffffffffffffffffffffffffffff160217905550610b21806100536000396000f30060806040526004361061008e576000357c0100000000000000000000000000000000000000000000000000000000900463ffffffff168063288b9b6714610093578063296be0e5146100b35780636f48e79b146100f8578063715018a61461013b5780638da5cb5b14610152578063c342f86f146101a9578063deb3bea414610200578063f2fde38b1461022b575b600080fd5b6100b16004803603810190808035906020019092919050505061026e565b005b3480156100bf57600080fd5b506100de600480360381019080803590602001909291905050506105da565b604051808215151515815260200191505060405180910390f35b34801561010457600080fd5b50610139600480360381019080803573ffffffffffffffffffffffffffffffffffffffff169060200190929190505050610622565b005b34801561014757600080fd5b506101506106c1565b005b34801561015e57600080fd5b506101676107c3565b604051808273ffffffffffffffffffffffffffffffffffffffff1673ffffffffffffffffffffffffffffffffffffffff16815260200191505060405180910390f35b3480156101b557600080fd5b506101be6107e8565b604051808273ffffffffffffffffffffffffffffffffffffffff1673ffffffffffffffffffffffffffffffffffffffff16815260200191505060405180910390f35b34801561020c57600080fd5b50610215610812565b6040518082815260200191505060405180910390f35b34801561023757600080fd5b5061026c600480360381019080803573ffffffffffffffffffffffffffffffffffffffff16906020019092919050505061081c565b005b600080343373ffffffffffffffffffffffffffffffffffffffff163110151515610300576040517f08c379a000000000000000000000000000000000000000000000000000000000815260040180806020018281038252601b8152602001807f596f7520646f6e2774206861766520656e6f756768206574682121000000000081525060200191505060405180910390fd5b610308610883565b91506103148383610930565b9050600181141561047457600160009054906101000a900473ffffffffffffffffffffffffffffffffffffffff1673ffffffffffffffffffffffffffffffffffffffff166108fc61036f60023461097890919063ffffffff16565b9081150290604051600060405180830381858888f1935050505015801561039a573d6000803e3d6000fd5b506103c36103b260023461097890919063ffffffff16565b60025461098e90919063ffffffff16565b6002819055503373ffffffffffffffffffffffffffffffffffffffff166108fc6103f760023461097890919063ffffffff16565b9081150290604051600060405180830381858888f19350505050158015610422573d6000803e3d6000fd5b5060017ff25c262b318c47c5c099783ec6c59e401593851990b7b5cf202d226ad8c79ce461045a60023461097890919063ffffffff16565b6040518082815260200191505060405180910390a26105d5565b600281141561053f57600160009054906101000a900473ffffffffffffffffffffffffffffffffffffffff1673ffffffffffffffffffffffffffffffffffffffff166108fc349081150290604051600060405180830381858888f193505050501580156104e5573d6000803e3d6000fd5b506104fb3460025461098e90919063ffffffff16565b60028190555060027ff25c262b318c47c5c099783ec6c59e401593851990b7b5cf202d226ad8c79ce4346040518082815260200191505060405180910390a26105d4565b60008114156105ce573373ffffffffffffffffffffffffffffffffffffffff166108fc349081150290604051600060405180830381858888f1935050505015801561058e573d6000803e3d6000fd5b5060007ff25c262b318c47c5c099783ec6c59e401593851990b7b5cf202d226ad8c79ce460006040518082815260200191505060405180910390a26105d3565b600080fd5b5b5b505050565b60006105f06002836109aa90919063ffffffff16565b3373ffffffffffffffffffffffffffffffffffffffff1631101515610618576001905061061d565b600090505b919050565b6000809054906101000a900473ffffffffffffffffffffffffffffffffffffffff1673ffffffffffffffffffffffffffffffffffffffff163373ffffffffffffffffffffffffffffffffffffffff1614151561067d57600080fd5b80600160006101000a81548173ffffffffffffffffffffffffffffffffffffffff021916908373ffffffffffffffffffffffffffffffffffffffff16021790555050565b6000809054906101000a900473ffffffffffffffffffffffffffffffffffffffff1673ffffffffffffffffffffffffffffffffffffffff163373ffffffffffffffffffffffffffffffffffffffff1614151561071c57600080fd5b6000809054906101000a900473ffffffffffffffffffffffffffffffffffffffff1673ffffffffffffffffffffffffffffffffffffffff167ff8df31144d9c2f0f6b59d69b8b98abd5459d07f2742c4df920b25aae33c6482060405160405180910390a260008060006101000a81548173ffffffffffffffffffffffffffffffffffffffff021916908373ffffffffffffffffffffffffffffffffffffffff160217905550565b6000809054906101000a900473ffffffffffffffffffffffffffffffffffffffff1681565b6000600160009054906101000a900473ffffffffffffffffffffffffffffffffffffffff16905090565b6000600254905090565b6000809054906101000a900473ffffffffffffffffffffffffffffffffffffffff1673ffffffffffffffffffffffffffffffffffffffff163373ffffffffffffffffffffffffffffffffffffffff1614151561087757600080fd5b610880816109e2565b50565b600080444260405160200180838152602001828152602001925050506040516020818303038152906040526040518082805190602001908083835b6020831015156108e357805182526020820191506020810190506020830392506108be565b6001836020036101000a038019825116818451168082178552505050505050905001915050604051809103902060019004905061092a60038261097890919063ffffffff16565b91505090565b60008061096c600361095e60036109508789610adc90919063ffffffff16565b61098e90919063ffffffff16565b61097890919063ffffffff16565b90508091505092915050565b6000818381151561098557fe5b04905092915050565b600081830190508281101515156109a157fe5b80905092915050565b6000808314156109bd57600090506109dc565b81830290508183828115156109ce57fe5b041415156109d857fe5b8090505b92915050565b600073ffffffffffffffffffffffffffffffffffffffff168173ffffffffffffffffffffffffffffffffffffffff1614151515610a1e57600080fd5b8073ffffffffffffffffffffffffffffffffffffffff166000809054906101000a900473ffffffffffffffffffffffffffffffffffffffff1673ffffffffffffffffffffffffffffffffffffffff167f8be0079c531659141344cd1fd0a4f28419497f9722a3daafe3b4186f6b6457e060405160405180910390a3806000806101000a81548173ffffffffffffffffffffffffffffffffffffffff021916908373ffffffffffffffffffffffffffffffffffffffff16021790555050565b6000828211151515610aea57fe5b8183039050929150505600a165627a7a72305820e80df450614b624274872beb9070d34725d43ee0126fefd72264557796565a1c0029",
  "source": "pragma solidity ^0.4.24;\n\nimport '../node_modules/openzeppelin-solidity/contracts/ownership/Ownable.sol';\nimport '../node_modules/openzeppelin-solidity/contracts/math/SafeMath.sol';\n\ncontract RockPaperScissors is Ownable {\n\n  using SafeMath for uint;\n\n  address donationAddress;\n  uint totalAmountOfDonation;\n  event RpsResult(uint indexed _result, uint _sendAmount);\n\n  function setDonationAddress(address _account) external onlyOwner() {\n    donationAddress = _account;\n  }\n\n  // checkよりgetだな\n  function checkDonationAddress() external view returns(address) {\n    return donationAddress;\n  }\n\n  function getTotalAmountOfDonation() external view returns(uint) {\n    return totalAmountOfDonation;\n  }\n\n  modifier affordPay() {\n    require(msg.sender.balance >= msg.value, \"You don't have enough eth!!\");\n    _;\n  }\n\n  function canStart(uint _price) external view returns(bool) {\n    if (msg.sender.balance >= _price.mul(2)) {\n      return true;\n    } else {\n      return false;\n    }\n  }\n\n  function random() private view returns (uint) {\n    uint randomHash = uint(keccak256(abi.encodePacked(block.difficulty, now)));\n    return randomHash.div(3);\n  }\n\n  function rpsCalc(uint _userHand, uint _randHand) private pure returns (uint) {\n    // マイナスが入るが大丈夫か？？\n    uint result = (_userHand.sub(_randHand).add(3)).div(3);\n    return result;\n  }\n\n  function rockPaperScissors(uint _userHand) external affordPay() payable {\n    uint randHand = random();\n    uint result = rpsCalc(_userHand, randHand);\n\n    if (result == 1) {\n      // LOSE\n      donationAddress.transfer(msg.value.div(2));\n      totalAmountOfDonation = totalAmountOfDonation.add(msg.value.div(2));\n      msg.sender.transfer(msg.value.div(2));\n      emit RpsResult(1, msg.value.div(2));\n    } else if (result == 2) {\n      // WIN\n      donationAddress.transfer(msg.value);\n      totalAmountOfDonation = totalAmountOfDonation.add(msg.value);\n      emit RpsResult(2, msg.value);\n    } else if (result == 0){\n      // DRAW\n      msg.sender.transfer(msg.value);\n      emit RpsResult(0, 0);\n    } else {\n      // if result is not 0,1,2 means Error.\n      revert();\n    }\n  }\n\n}\n",
  "sourcePath": "/mnt/c/react-apps/otokogi/contracts/RockPaperScissors.sol",
  "compiler": {
    "name": "solc",
    "version": "0.4.24+commit.e67f0147.Emscripten.clang"
  },
  "schemaVersion": "2.0.1",
  "updatedAt": "2018-10-27T12:09:00.285Z"
}