{
  "contractName": "RockPaperScissors",
  "abi": [
    {
      "constant": true,
      "inputs": [
        {
          "name": "",
          "type": "address"
        }
      ],
      "name": "userTotalAmountOfDonation",
      "outputs": [
        {
          "name": "",
          "type": "uint256"
        }
      ],
      "payable": false,
      "stateMutability": "view",
      "type": "function"
    },
    {
      "constant": false,
      "inputs": [],
      "name": "renounceOwnership",
      "outputs": [],
      "payable": false,
      "stateMutability": "nonpayable",
      "type": "function"
    },
    {
      "constant": true,
      "inputs": [],
      "name": "owner",
      "outputs": [
        {
          "name": "",
          "type": "address"
        }
      ],
      "payable": false,
      "stateMutability": "view",
      "type": "function"
    },
    {
      "constant": true,
      "inputs": [],
      "name": "isOwner",
      "outputs": [
        {
          "name": "",
          "type": "bool"
        }
      ],
      "payable": false,
      "stateMutability": "view",
      "type": "function"
    },
    {
      "constant": false,
      "inputs": [
        {
          "name": "newOwner",
          "type": "address"
        }
      ],
      "name": "transferOwnership",
      "outputs": [],
      "payable": false,
      "stateMutability": "nonpayable",
      "type": "function"
    },
    {
      "anonymous": false,
      "inputs": [
        {
          "indexed": true,
          "name": "_result",
          "type": "uint256"
        },
        {
          "indexed": false,
          "name": "_sendAmount",
          "type": "uint256"
        }
      ],
      "name": "RpsResult",
      "type": "event"
    },
    {
      "anonymous": false,
      "inputs": [
        {
          "indexed": true,
          "name": "previousOwner",
          "type": "address"
        },
        {
          "indexed": true,
          "name": "newOwner",
          "type": "address"
        }
      ],
      "name": "OwnershipTransferred",
      "type": "event"
    },
    {
      "constant": false,
      "inputs": [
        {
          "name": "_account",
          "type": "address"
        }
      ],
      "name": "setDonationAddress",
      "outputs": [],
      "payable": false,
      "stateMutability": "nonpayable",
      "type": "function"
    },
    {
      "constant": true,
      "inputs": [],
      "name": "checkDonationAddress",
      "outputs": [
        {
          "name": "",
          "type": "address"
        }
      ],
      "payable": false,
      "stateMutability": "view",
      "type": "function"
    },
    {
      "constant": true,
      "inputs": [],
      "name": "getTotalAmountOfDonation",
      "outputs": [
        {
          "name": "",
          "type": "uint256"
        }
      ],
      "payable": false,
      "stateMutability": "view",
      "type": "function"
    },
    {
      "constant": true,
      "inputs": [],
      "name": "getUserTotalAmountOfDonation",
      "outputs": [
        {
          "name": "",
          "type": "uint256"
        }
      ],
      "payable": false,
      "stateMutability": "view",
      "type": "function"
    },
    {
      "constant": true,
      "inputs": [
        {
          "name": "_price",
          "type": "uint256"
        }
      ],
      "name": "canStart",
      "outputs": [
        {
          "name": "",
          "type": "bool"
        }
      ],
      "payable": false,
      "stateMutability": "view",
      "type": "function"
    },
    {
      "constant": false,
      "inputs": [
        {
          "name": "_userHand",
          "type": "uint256"
        }
      ],
      "name": "rockPaperScissors",
      "outputs": [],
      "payable": true,
      "stateMutability": "payable",
      "type": "function"
    }
  ],
  "bytecode": "0x6080604052336000806101000a81548173ffffffffffffffffffffffffffffffffffffffff021916908373ffffffffffffffffffffffffffffffffffffffff1602179055506000809054906101000a900473ffffffffffffffffffffffffffffffffffffffff1673ffffffffffffffffffffffffffffffffffffffff16600073ffffffffffffffffffffffffffffffffffffffff167f8be0079c531659141344cd1fd0a4f28419497f9722a3daafe3b4186f6b6457e060405160405180910390a3610dba806100cf6000396000f3006080604052600436106100af576000357c0100000000000000000000000000000000000000000000000000000000900463ffffffff168063120eebca146100b4578063288b9b671461010b578063296be0e51461012b57806349be2a85146101705780636f48e79b1461019b578063715018a6146101de5780638da5cb5b146101f55780638f32d59b1461024c578063c342f86f1461027b578063deb3bea4146102d2578063f2fde38b146102fd575b600080fd5b3480156100c057600080fd5b506100f5600480360381019080803573ffffffffffffffffffffffffffffffffffffffff169060200190929190505050610340565b6040518082815260200191505060405180910390f35b61012960048036038101908080359060200190929190505050610358565b005b34801561013757600080fd5b5061015660048036038101908080359060200190929190505050610801565b604051808215151515815260200191505060405180910390f35b34801561017c57600080fd5b50610185610849565b6040518082815260200191505060405180910390f35b3480156101a757600080fd5b506101dc600480360381019080803573ffffffffffffffffffffffffffffffffffffffff169060200190929190505050610890565b005b3480156101ea57600080fd5b506101f36108e7565b005b34801561020157600080fd5b5061020a6109b9565b604051808273ffffffffffffffffffffffffffffffffffffffff1673ffffffffffffffffffffffffffffffffffffffff16815260200191505060405180910390f35b34801561025857600080fd5b506102616109e2565b604051808215151515815260200191505060405180910390f35b34801561028757600080fd5b50610290610a39565b604051808273ffffffffffffffffffffffffffffffffffffffff1673ffffffffffffffffffffffffffffffffffffffff16815260200191505060405180910390f35b3480156102de57600080fd5b506102e7610a63565b6040518082815260200191505060405180910390f35b34801561030957600080fd5b5061033e600480360381019080803573ffffffffffffffffffffffffffffffffffffffff169060200190929190505050610a6d565b005b60036020528060005260406000206000915090505481565b600080343373ffffffffffffffffffffffffffffffffffffffff1631101515156103ea576040517f08c379a000000000000000000000000000000000000000000000000000000000815260040180806020018281038252601b8152602001807f596f7520646f6e2774206861766520656e6f756768206574682121000000000081525060200191505060405180910390fd5b6103f2610a8c565b91506103fe8383610b39565b9050600181141561060657600160009054906101000a900473ffffffffffffffffffffffffffffffffffffffff1673ffffffffffffffffffffffffffffffffffffffff166108fc610459600234610bc590919063ffffffff16565b9081150290604051600060405180830381858888f19350505050158015610484573d6000803e3d6000fd5b503373ffffffffffffffffffffffffffffffffffffffff166108fc6104b3600234610bc590919063ffffffff16565b9081150290604051600060405180830381858888f193505050501580156104de573d6000803e3d6000fd5b506105076104f6600234610bc590919063ffffffff16565b600254610bef90919063ffffffff16565b600281905550610572610524600234610bc590919063ffffffff16565b600360003373ffffffffffffffffffffffffffffffffffffffff1673ffffffffffffffffffffffffffffffffffffffff16815260200190815260200160002054610bef90919063ffffffff16565b600360003373ffffffffffffffffffffffffffffffffffffffff1673ffffffffffffffffffffffffffffffffffffffff1681526020019081526020016000208190555060017ff25c262b318c47c5c099783ec6c59e401593851990b7b5cf202d226ad8c79ce46105ec600234610bc590919063ffffffff16565b6040518082815260200191505060405180910390a26107fc565b600281141561076657600160009054906101000a900473ffffffffffffffffffffffffffffffffffffffff1673ffffffffffffffffffffffffffffffffffffffff166108fc349081150290604051600060405180830381858888f19350505050158015610677573d6000803e3d6000fd5b5061068d34600254610bef90919063ffffffff16565b6002819055506106e534600360003373ffffffffffffffffffffffffffffffffffffffff1673ffffffffffffffffffffffffffffffffffffffff16815260200190815260200160002054610bef90919063ffffffff16565b600360003373ffffffffffffffffffffffffffffffffffffffff1673ffffffffffffffffffffffffffffffffffffffff1681526020019081526020016000208190555060027ff25c262b318c47c5c099783ec6c59e401593851990b7b5cf202d226ad8c79ce4346040518082815260200191505060405180910390a26107fb565b60008114156107f5573373ffffffffffffffffffffffffffffffffffffffff166108fc349081150290604051600060405180830381858888f193505050501580156107b5573d6000803e3d6000fd5b5060007ff25c262b318c47c5c099783ec6c59e401593851990b7b5cf202d226ad8c79ce460006040518082815260200191505060405180910390a26107fa565b600080fd5b5b5b505050565b6000610817600283610c1090919063ffffffff16565b3373ffffffffffffffffffffffffffffffffffffffff163110151561083f5760019050610844565b600090505b919050565b6000600360003373ffffffffffffffffffffffffffffffffffffffff1673ffffffffffffffffffffffffffffffffffffffff16815260200190815260200160002054905090565b6108986109e2565b15156108a357600080fd5b80600160006101000a81548173ffffffffffffffffffffffffffffffffffffffff021916908373ffffffffffffffffffffffffffffffffffffffff16021790555050565b6108ef6109e2565b15156108fa57600080fd5b600073ffffffffffffffffffffffffffffffffffffffff166000809054906101000a900473ffffffffffffffffffffffffffffffffffffffff1673ffffffffffffffffffffffffffffffffffffffff167f8be0079c531659141344cd1fd0a4f28419497f9722a3daafe3b4186f6b6457e060405160405180910390a360008060006101000a81548173ffffffffffffffffffffffffffffffffffffffff021916908373ffffffffffffffffffffffffffffffffffffffff160217905550565b60008060009054906101000a900473ffffffffffffffffffffffffffffffffffffffff16905090565b60008060009054906101000a900473ffffffffffffffffffffffffffffffffffffffff1673ffffffffffffffffffffffffffffffffffffffff163373ffffffffffffffffffffffffffffffffffffffff1614905090565b6000600160009054906101000a900473ffffffffffffffffffffffffffffffffffffffff16905090565b6000600254905090565b610a756109e2565b1515610a8057600080fd5b610a8981610c4e565b50565b600080444260405160200180838152602001828152602001925050506040516020818303038152906040526040518082805190602001908083835b602083101515610aec5780518252602082019150602081019050602083039250610ac7565b6001836020036101000a0380198251168184511680821785525050505050509050019150506040518091039020600190049050610b33600382610d4890919063ffffffff16565b91505090565b600081831115610b8357610b7c6003610b6e6003610b608688610d6d90919063ffffffff16565b610bef90919063ffffffff16565b610d4890919063ffffffff16565b9050610bbf565b610bbc6003610bae6003610ba08787610d6d90919063ffffffff16565b610bef90919063ffffffff16565b610d4890919063ffffffff16565b90505b92915050565b600080600083111515610bd757600080fd5b8284811515610be257fe5b0490508091505092915050565b6000808284019050838110151515610c0657600080fd5b8091505092915050565b6000806000841415610c255760009150610c47565b8284029050828482811515610c3657fe5b04141515610c4357600080fd5b8091505b5092915050565b600073ffffffffffffffffffffffffffffffffffffffff168173ffffffffffffffffffffffffffffffffffffffff1614151515610c8a57600080fd5b8073ffffffffffffffffffffffffffffffffffffffff166000809054906101000a900473ffffffffffffffffffffffffffffffffffffffff1673ffffffffffffffffffffffffffffffffffffffff167f8be0079c531659141344cd1fd0a4f28419497f9722a3daafe3b4186f6b6457e060405160405180910390a3806000806101000a81548173ffffffffffffffffffffffffffffffffffffffff021916908373ffffffffffffffffffffffffffffffffffffffff16021790555050565b6000808214151515610d5957600080fd5b8183811515610d6457fe5b06905092915050565b600080838311151515610d7f57600080fd5b828403905080915050929150505600a165627a7a723058202174c7250cd3807eecc92dadb248f69d9ee8290e5636f390363a4dd325958c060029",
  "source": "pragma solidity ^0.4.24;\n\nimport '../node_modules/openzeppelin-solidity/contracts/ownership/Ownable.sol';\nimport '../node_modules/openzeppelin-solidity/contracts/math/SafeMath.sol';\n\ncontract RockPaperScissors is Ownable {\n\n  using SafeMath for uint;\n\n  address donationAddress;\n  uint totalAmountOfDonation;\n  mapping(address => uint) public userTotalAmountOfDonation;\n  event RpsResult(uint indexed _result, uint _sendAmount);\n\n  function setDonationAddress(address _account) external onlyOwner() {\n    donationAddress = _account;\n  }\n\n  // checkよりgetだな\n  function checkDonationAddress() external view returns(address) {\n    return donationAddress;\n  }\n\n  function getTotalAmountOfDonation() external view returns(uint) {\n    return totalAmountOfDonation;\n  }\n\n  function getUserTotalAmountOfDonation() external view returns(uint) {\n    return userTotalAmountOfDonation[msg.sender];\n  }\n\n  modifier affordPay() {\n    require(msg.sender.balance >= msg.value, \"You don't have enough eth!!\");\n    _;\n  }\n\n  function canStart(uint _price) external view returns(bool) {\n    if (msg.sender.balance >= _price.mul(2)) {\n      return true;\n    } else {\n      return false;\n    }\n  }\n\n  function random() private view returns (uint) {\n    uint randomHash = uint(keccak256(abi.encodePacked(block.difficulty, now)));\n    return randomHash.mod(3);\n  }\n\n  function rpsCalc(uint _userHand, uint _randHand) private pure returns (uint) {\n    if (_userHand > _randHand) {\n      return (_userHand.sub(_randHand).add(3)).mod(3);\n    } else {\n      return (_randHand.sub(_userHand).add(3)).mod(3);\n    }\n  }\n\n  function rockPaperScissors(uint _userHand) external affordPay() payable {\n    uint randHand = random();\n    uint result = rpsCalc(_userHand, randHand);\n\n    if (result == 1) {\n      // LOSE\n      donationAddress.transfer(msg.value.div(2));\n      msg.sender.transfer(msg.value.div(2));\n      totalAmountOfDonation = totalAmountOfDonation.add(msg.value.div(2));\n      userTotalAmountOfDonation[msg.sender] = userTotalAmountOfDonation[msg.sender].add(msg.value.div(2));\n      emit RpsResult(1, msg.value.div(2));\n    } else if (result == 2) {\n      // WIN\n      donationAddress.transfer(msg.value);\n      totalAmountOfDonation = totalAmountOfDonation.add(msg.value);\n      userTotalAmountOfDonation[msg.sender] = userTotalAmountOfDonation[msg.sender].add(msg.value);\n      emit RpsResult(2, msg.value);\n    } else if (result == 0){\n      // DRAW\n      msg.sender.transfer(msg.value);\n      emit RpsResult(0, 0);\n    } else {\n      // if result is not 0,1,2 means Error.\n      revert();\n    }\n  }\n\n}\n",
  "sourcePath": "/mnt/c/react-apps/otokogi/contracts/RockPaperScissors.sol",
  "compiler": {
    "name": "solc",
    "version": "0.4.24+commit.e67f0147.Emscripten.clang"
  },
  "schemaVersion": "2.0.1",
  "updatedAt": "2018-11-01T23:25:32.713Z"
}