{
  "contractName": "RockPaperScissors",
  "abi": [
    {
      "constant": false,
      "inputs": [],
      "name": "renounceOwnership",
      "outputs": [],
      "payable": false,
      "stateMutability": "nonpayable",
      "type": "function"
    },
    {
      "constant": true,
      "inputs": [],
      "name": "owner",
      "outputs": [
        {
          "name": "",
          "type": "address"
        }
      ],
      "payable": false,
      "stateMutability": "view",
      "type": "function"
    },
    {
      "constant": false,
      "inputs": [
        {
          "name": "_newOwner",
          "type": "address"
        }
      ],
      "name": "transferOwnership",
      "outputs": [],
      "payable": false,
      "stateMutability": "nonpayable",
      "type": "function"
    },
    {
      "anonymous": false,
      "inputs": [
        {
          "indexed": false,
          "name": "_result",
          "type": "uint256"
        },
        {
          "indexed": false,
          "name": "_sendedAmount",
          "type": "uint256"
        }
      ],
      "name": "RpsResult",
      "type": "event"
    },
    {
      "anonymous": false,
      "inputs": [
        {
          "indexed": true,
          "name": "previousOwner",
          "type": "address"
        }
      ],
      "name": "OwnershipRenounced",
      "type": "event"
    },
    {
      "anonymous": false,
      "inputs": [
        {
          "indexed": true,
          "name": "previousOwner",
          "type": "address"
        },
        {
          "indexed": true,
          "name": "newOwner",
          "type": "address"
        }
      ],
      "name": "OwnershipTransferred",
      "type": "event"
    },
    {
      "constant": false,
      "inputs": [
        {
          "name": "_account",
          "type": "address"
        }
      ],
      "name": "setDonationAddress",
      "outputs": [],
      "payable": false,
      "stateMutability": "nonpayable",
      "type": "function"
    },
    {
      "constant": true,
      "inputs": [],
      "name": "checkDonationAddress",
      "outputs": [
        {
          "name": "",
          "type": "address"
        }
      ],
      "payable": false,
      "stateMutability": "view",
      "type": "function"
    },
    {
      "constant": true,
      "inputs": [
        {
          "name": "_price",
          "type": "uint256"
        }
      ],
      "name": "canStart",
      "outputs": [
        {
          "name": "",
          "type": "bool"
        }
      ],
      "payable": false,
      "stateMutability": "view",
      "type": "function"
    },
    {
      "constant": false,
      "inputs": [
        {
          "name": "_userHand",
          "type": "uint256"
        }
      ],
      "name": "rockPaperScissors",
      "outputs": [],
      "payable": true,
      "stateMutability": "payable",
      "type": "function"
    }
  ],
  "bytecode": "0x6080604052336000806101000a81548173ffffffffffffffffffffffffffffffffffffffff021916908373ffffffffffffffffffffffffffffffffffffffff1602179055506109d5806100536000396000f300608060405260043610610083576000357c0100000000000000000000000000000000000000000000000000000000900463ffffffff168063288b9b6714610088578063296be0e5146100a85780636f48e79b146100ed578063715018a6146101305780638da5cb5b14610147578063c342f86f1461019e578063f2fde38b146101f5575b600080fd5b6100a660048036038101908080359060200190929190505050610238565b005b3480156100b457600080fd5b506100d36004803603810190808035906020019092919050505061055a565b604051808215151515815260200191505060405180910390f35b3480156100f957600080fd5b5061012e600480360381019080803573ffffffffffffffffffffffffffffffffffffffff169060200190929190505050610592565b005b34801561013c57600080fd5b50610145610631565b005b34801561015357600080fd5b5061015c610733565b604051808273ffffffffffffffffffffffffffffffffffffffff1673ffffffffffffffffffffffffffffffffffffffff16815260200191505060405180910390f35b3480156101aa57600080fd5b506101b3610758565b604051808273ffffffffffffffffffffffffffffffffffffffff1673ffffffffffffffffffffffffffffffffffffffff16815260200191505060405180910390f35b34801561020157600080fd5b50610236600480360381019080803573ffffffffffffffffffffffffffffffffffffffff169060200190929190505050610782565b005b600080343373ffffffffffffffffffffffffffffffffffffffff1631101515156102ca576040517f08c379a000000000000000000000000000000000000000000000000000000000815260040180806020018281038252601b8152602001807f596f7520646f6e2774206861766520656e6f756768206574682121000000000081525060200191505060405180910390fd5b6102d26107e9565b91506102de838361088f565b9050600181141561040257600160009054906101000a900473ffffffffffffffffffffffffffffffffffffffff1673ffffffffffffffffffffffffffffffffffffffff166108fc60023481151561033157fe5b049081150290604051600060405180830381858888f1935050505015801561035d573d6000803e3d6000fd5b503373ffffffffffffffffffffffffffffffffffffffff166108fc60023481151561038457fe5b049081150290604051600060405180830381858888f193505050501580156103b0573d6000803e3d6000fd5b507ff25c262b318c47c5c099783ec6c59e401593851990b7b5cf202d226ad8c79ce460016002348115156103e057fe5b04604051808381526020018281526020019250505060405180910390a1610555565b60028114156104b957600160009054906101000a900473ffffffffffffffffffffffffffffffffffffffff1673ffffffffffffffffffffffffffffffffffffffff166108fc349081150290604051600060405180830381858888f19350505050158015610473573d6000803e3d6000fd5b507ff25c262b318c47c5c099783ec6c59e401593851990b7b5cf202d226ad8c79ce4600234604051808381526020018281526020019250505060405180910390a1610554565b600081141561054e573373ffffffffffffffffffffffffffffffffffffffff166108fc349081150290604051600060405180830381858888f19350505050158015610508573d6000803e3d6000fd5b507ff25c262b318c47c5c099783ec6c59e401593851990b7b5cf202d226ad8c79ce4600080604051808381526020018281526020019250505060405180910390a1610553565b600080fd5b5b5b505050565b6000600282023373ffffffffffffffffffffffffffffffffffffffff1631101515610588576001905061058d565b600090505b919050565b6000809054906101000a900473ffffffffffffffffffffffffffffffffffffffff1673ffffffffffffffffffffffffffffffffffffffff163373ffffffffffffffffffffffffffffffffffffffff161415156105ed57600080fd5b80600160006101000a81548173ffffffffffffffffffffffffffffffffffffffff021916908373ffffffffffffffffffffffffffffffffffffffff16021790555050565b6000809054906101000a900473ffffffffffffffffffffffffffffffffffffffff1673ffffffffffffffffffffffffffffffffffffffff163373ffffffffffffffffffffffffffffffffffffffff1614151561068c57600080fd5b6000809054906101000a900473ffffffffffffffffffffffffffffffffffffffff1673ffffffffffffffffffffffffffffffffffffffff167ff8df31144d9c2f0f6b59d69b8b98abd5459d07f2742c4df920b25aae33c6482060405160405180910390a260008060006101000a81548173ffffffffffffffffffffffffffffffffffffffff021916908373ffffffffffffffffffffffffffffffffffffffff160217905550565b6000809054906101000a900473ffffffffffffffffffffffffffffffffffffffff1681565b6000600160009054906101000a900473ffffffffffffffffffffffffffffffffffffffff16905090565b6000809054906101000a900473ffffffffffffffffffffffffffffffffffffffff1673ffffffffffffffffffffffffffffffffffffffff163373ffffffffffffffffffffffffffffffffffffffff161415156107dd57600080fd5b6107e6816108af565b50565b600080444260405160200180838152602001828152602001925050506040516020818303038152906040526040518082805190602001908083835b6020831015156108495780518252602082019150602081019050602083039250610824565b6001836020036101000a038019825116818451168082178552505050505050905001915050604051809103902060019004905060038181151561088857fe5b0691505090565b600080600380848603018115156108a257fe5b0690508091505092915050565b600073ffffffffffffffffffffffffffffffffffffffff168173ffffffffffffffffffffffffffffffffffffffff16141515156108eb57600080fd5b8073ffffffffffffffffffffffffffffffffffffffff166000809054906101000a900473ffffffffffffffffffffffffffffffffffffffff1673ffffffffffffffffffffffffffffffffffffffff167f8be0079c531659141344cd1fd0a4f28419497f9722a3daafe3b4186f6b6457e060405160405180910390a3806000806101000a81548173ffffffffffffffffffffffffffffffffffffffff021916908373ffffffffffffffffffffffffffffffffffffffff160217905550505600a165627a7a7230582078c8d4fd6e3036a5683cdd223ca7b1acd2bfd5cf72e3209b95a9c81697ae9fa20029",
  "source": "pragma solidity ^0.4.24;\n\nimport '../node_modules/openzeppelin-solidity/contracts/ownership/Ownable.sol';\n//import 'openzeppelin-solidity/contracts/ownership/Ownable.sol';\n\ncontract RockPaperScissors is Ownable {\n  address donationAddress;\n  event RpsResult(uint _result, uint _sendedAmount);\n\n  function setDonationAddress(address _account) external onlyOwner() {\n    donationAddress = _account;\n  }\n\n  // checkよりgetだな\n  function checkDonationAddress() external view returns(address) {\n    return donationAddress;\n  }\n\n  modifier affordPay() {\n    require(msg.sender.balance >= msg.value, \"You don't have enough eth!!\");\n    _;\n  }\n\n  function canStart(uint _price) external view returns(bool) {\n    if (msg.sender.balance >= _price * 2 wei) {\n      return true;\n    } else {\n      return false;\n    }\n  }\n\n  function random() private view returns (uint) {\n    uint randomHash = uint(keccak256(abi.encodePacked(block.difficulty, now)));\n    return randomHash % 3;\n  }\n\n  function rpsCalc(uint _userHand, uint _randHand) private pure returns (uint) {\n    // マイナスが入るが大丈夫か？？\n    uint result = (_userHand - _randHand + 3) % 3;\n    return result;\n  }\n\n  function rockPaperScissors(uint _userHand) external affordPay() payable {\n    uint randHand = random();\n    uint result = rpsCalc(_userHand, randHand);\n\n    if (result == 1) {\n      // LOSE\n      donationAddress.transfer(msg.value / 2);\n      msg.sender.transfer(msg.value / 2);\n      emit RpsResult(1, msg.value / 2);\n    } else if (result == 2) {\n      // WIN\n      donationAddress.transfer(msg.value);\n      emit RpsResult(2, msg.value);\n    } else if (result == 0){\n      // DRAW\n      msg.sender.transfer(msg.value);\n      emit RpsResult(0, 0);\n    } else {\n      // if result is not 0,1,2 means Error.\n      revert();\n    }\n  }\n\n}\n",
  "sourcePath": "/mnt/c/react-apps/otokogi/contracts/RockPaperScissors.sol",
  "compiler": {
    "name": "solc",
    "version": "0.4.24+commit.e67f0147.Emscripten.clang"
  },
  "schemaVersion": "2.0.1",
  "updatedAt": "2018-10-25T00:08:51.545Z"
}