{
  "contractName": "RockPaperScissors",
  "abi": [
    {
      "constant": true,
      "inputs": [
        {
          "name": "",
          "type": "address"
        }
      ],
      "name": "userTotalAmountOfDonation",
      "outputs": [
        {
          "name": "",
          "type": "uint256"
        }
      ],
      "payable": false,
      "stateMutability": "view",
      "type": "function"
    },
    {
      "constant": false,
      "inputs": [],
      "name": "renounceOwnership",
      "outputs": [],
      "payable": false,
      "stateMutability": "nonpayable",
      "type": "function"
    },
    {
      "constant": true,
      "inputs": [],
      "name": "owner",
      "outputs": [
        {
          "name": "",
          "type": "address"
        }
      ],
      "payable": false,
      "stateMutability": "view",
      "type": "function"
    },
    {
      "constant": true,
      "inputs": [],
      "name": "isOwner",
      "outputs": [
        {
          "name": "",
          "type": "bool"
        }
      ],
      "payable": false,
      "stateMutability": "view",
      "type": "function"
    },
    {
      "constant": false,
      "inputs": [
        {
          "name": "newOwner",
          "type": "address"
        }
      ],
      "name": "transferOwnership",
      "outputs": [],
      "payable": false,
      "stateMutability": "nonpayable",
      "type": "function"
    },
    {
      "anonymous": false,
      "inputs": [
        {
          "indexed": true,
          "name": "_result",
          "type": "uint256"
        },
        {
          "indexed": false,
          "name": "_sendAmount",
          "type": "uint256"
        }
      ],
      "name": "RpsResult",
      "type": "event"
    },
    {
      "anonymous": false,
      "inputs": [
        {
          "indexed": true,
          "name": "previousOwner",
          "type": "address"
        },
        {
          "indexed": true,
          "name": "newOwner",
          "type": "address"
        }
      ],
      "name": "OwnershipTransferred",
      "type": "event"
    },
    {
      "constant": false,
      "inputs": [
        {
          "name": "_account",
          "type": "address"
        }
      ],
      "name": "setDonationAddress",
      "outputs": [],
      "payable": false,
      "stateMutability": "nonpayable",
      "type": "function"
    },
    {
      "constant": true,
      "inputs": [],
      "name": "checkDonationAddress",
      "outputs": [
        {
          "name": "",
          "type": "address"
        }
      ],
      "payable": false,
      "stateMutability": "view",
      "type": "function"
    },
    {
      "constant": true,
      "inputs": [],
      "name": "getTotalAmountOfDonation",
      "outputs": [
        {
          "name": "",
          "type": "uint256"
        }
      ],
      "payable": false,
      "stateMutability": "view",
      "type": "function"
    },
    {
      "constant": true,
      "inputs": [
        {
          "name": "_userAddress",
          "type": "address"
        }
      ],
      "name": "getUserTotalAmountOfDonation",
      "outputs": [
        {
          "name": "",
          "type": "uint256"
        }
      ],
      "payable": false,
      "stateMutability": "view",
      "type": "function"
    },
    {
      "constant": true,
      "inputs": [
        {
          "name": "_price",
          "type": "uint256"
        }
      ],
      "name": "canStart",
      "outputs": [
        {
          "name": "",
          "type": "bool"
        }
      ],
      "payable": false,
      "stateMutability": "view",
      "type": "function"
    },
    {
      "constant": true,
      "inputs": [
        {
          "name": "_num",
          "type": "uint256"
        }
      ],
      "name": "random",
      "outputs": [
        {
          "name": "",
          "type": "uint256"
        }
      ],
      "payable": false,
      "stateMutability": "view",
      "type": "function"
    },
    {
      "constant": false,
      "inputs": [
        {
          "name": "_userHand",
          "type": "uint256"
        },
        {
          "name": "_num",
          "type": "uint256"
        }
      ],
      "name": "rockPaperScissors",
      "outputs": [],
      "payable": true,
      "stateMutability": "payable",
      "type": "function"
    }
  ],
  "bytecode": "0x6080604052336000806101000a81548173ffffffffffffffffffffffffffffffffffffffff021916908373ffffffffffffffffffffffffffffffffffffffff1602179055506000809054906101000a900473ffffffffffffffffffffffffffffffffffffffff1673ffffffffffffffffffffffffffffffffffffffff16600073ffffffffffffffffffffffffffffffffffffffff167f8be0079c531659141344cd1fd0a4f28419497f9722a3daafe3b4186f6b6457e060405160405180910390a3610e4a806100cf6000396000f3006080604052600436106100ba576000357c0100000000000000000000000000000000000000000000000000000000900463ffffffff168063120eebca146100bf578063296be0e5146101165780636f48e79b1461015b578063715018a61461019e57806385d14a55146101b55780638da5cb5b1461020c5780638f32d59b14610263578063934e173614610292578063b863bd37146102bc578063c342f86f146102fd578063deb3bea414610354578063f2fde38b1461037f575b600080fd5b3480156100cb57600080fd5b50610100600480360381019080803573ffffffffffffffffffffffffffffffffffffffff1690602001909291905050506103c2565b6040518082815260200191505060405180910390f35b34801561012257600080fd5b50610141600480360381019080803590602001909291905050506103da565b604051808215151515815260200191505060405180910390f35b34801561016757600080fd5b5061019c600480360381019080803573ffffffffffffffffffffffffffffffffffffffff169060200190929190505050610422565b005b3480156101aa57600080fd5b506101b3610479565b005b3480156101c157600080fd5b506101f6600480360381019080803573ffffffffffffffffffffffffffffffffffffffff16906020019092919050505061054b565b6040518082815260200191505060405180910390f35b34801561021857600080fd5b50610221610594565b604051808273ffffffffffffffffffffffffffffffffffffffff1673ffffffffffffffffffffffffffffffffffffffff16815260200191505060405180910390f35b34801561026f57600080fd5b506102786105bd565b604051808215151515815260200191505060405180910390f35b6102ba6004803603810190808035906020019092919080359060200190929190505050610614565b005b3480156102c857600080fd5b506102e760048036038101908080359060200190929190505050610abf565b6040518082815260200191505060405180910390f35b34801561030957600080fd5b50610312610b76565b604051808273ffffffffffffffffffffffffffffffffffffffff1673ffffffffffffffffffffffffffffffffffffffff16815260200191505060405180910390f35b34801561036057600080fd5b50610369610ba0565b6040518082815260200191505060405180910390f35b34801561038b57600080fd5b506103c0600480360381019080803573ffffffffffffffffffffffffffffffffffffffff169060200190929190505050610baa565b005b60036020528060005260406000206000915090505481565b60006103f0600283610bc990919063ffffffff16565b3373ffffffffffffffffffffffffffffffffffffffff1631101515610418576001905061041d565b600090505b919050565b61042a6105bd565b151561043557600080fd5b80600160006101000a81548173ffffffffffffffffffffffffffffffffffffffff021916908373ffffffffffffffffffffffffffffffffffffffff16021790555050565b6104816105bd565b151561048c57600080fd5b600073ffffffffffffffffffffffffffffffffffffffff166000809054906101000a900473ffffffffffffffffffffffffffffffffffffffff1673ffffffffffffffffffffffffffffffffffffffff167f8be0079c531659141344cd1fd0a4f28419497f9722a3daafe3b4186f6b6457e060405160405180910390a360008060006101000a81548173ffffffffffffffffffffffffffffffffffffffff021916908373ffffffffffffffffffffffffffffffffffffffff160217905550565b6000600360008373ffffffffffffffffffffffffffffffffffffffff1673ffffffffffffffffffffffffffffffffffffffff168152602001908152602001600020549050919050565b60008060009054906101000a900473ffffffffffffffffffffffffffffffffffffffff16905090565b60008060009054906101000a900473ffffffffffffffffffffffffffffffffffffffff1673ffffffffffffffffffffffffffffffffffffffff163373ffffffffffffffffffffffffffffffffffffffff1614905090565b600080343373ffffffffffffffffffffffffffffffffffffffff1631101515156106a6576040517f08c379a000000000000000000000000000000000000000000000000000000000815260040180806020018281038252601b8152602001807f596f7520646f6e2774206861766520656e6f756768206574682121000000000081525060200191505060405180910390fd5b6106af83610abf565b91506106bb8483610c07565b905060018114156108c357600160009054906101000a900473ffffffffffffffffffffffffffffffffffffffff1673ffffffffffffffffffffffffffffffffffffffff166108fc610716600234610c9390919063ffffffff16565b9081150290604051600060405180830381858888f19350505050158015610741573d6000803e3d6000fd5b503373ffffffffffffffffffffffffffffffffffffffff166108fc610770600234610c9390919063ffffffff16565b9081150290604051600060405180830381858888f1935050505015801561079b573d6000803e3d6000fd5b506107c46107b3600234610c9390919063ffffffff16565b600254610cbd90919063ffffffff16565b60028190555061082f6107e1600234610c9390919063ffffffff16565b600360003373ffffffffffffffffffffffffffffffffffffffff1673ffffffffffffffffffffffffffffffffffffffff16815260200190815260200160002054610cbd90919063ffffffff16565b600360003373ffffffffffffffffffffffffffffffffffffffff1673ffffffffffffffffffffffffffffffffffffffff1681526020019081526020016000208190555060017ff25c262b318c47c5c099783ec6c59e401593851990b7b5cf202d226ad8c79ce46108a9600234610c9390919063ffffffff16565b6040518082815260200191505060405180910390a2610ab9565b6002811415610a2357600160009054906101000a900473ffffffffffffffffffffffffffffffffffffffff1673ffffffffffffffffffffffffffffffffffffffff166108fc349081150290604051600060405180830381858888f19350505050158015610934573d6000803e3d6000fd5b5061094a34600254610cbd90919063ffffffff16565b6002819055506109a234600360003373ffffffffffffffffffffffffffffffffffffffff1673ffffffffffffffffffffffffffffffffffffffff16815260200190815260200160002054610cbd90919063ffffffff16565b600360003373ffffffffffffffffffffffffffffffffffffffff1673ffffffffffffffffffffffffffffffffffffffff1681526020019081526020016000208190555060027ff25c262b318c47c5c099783ec6c59e401593851990b7b5cf202d226ad8c79ce4346040518082815260200191505060405180910390a2610ab8565b6000811415610ab2573373ffffffffffffffffffffffffffffffffffffffff166108fc349081150290604051600060405180830381858888f19350505050158015610a72573d6000803e3d6000fd5b5060007ff25c262b318c47c5c099783ec6c59e401593851990b7b5cf202d226ad8c79ce460006040518082815260200191505060405180910390a2610ab7565b600080fd5b5b5b50505050565b6000804442846040516020018084815260200183815260200182815260200193505050506040516020818303038152906040526040518082805190602001908083835b602083101515610b275780518252602082019150602081019050602083039250610b02565b6001836020036101000a0380198251168184511680821785525050505050509050019150506040518091039020600190049050610b6e600382610cde90919063ffffffff16565b915050919050565b6000600160009054906101000a900473ffffffffffffffffffffffffffffffffffffffff16905090565b6000600254905090565b610bb26105bd565b1515610bbd57600080fd5b610bc681610d03565b50565b6000806000841415610bde5760009150610c00565b8284029050828482811515610bef57fe5b04141515610bfc57600080fd5b8091505b5092915050565b600081831115610c5157610c4a6003610c3c6003610c2e8688610dfd90919063ffffffff16565b610cbd90919063ffffffff16565b610cde90919063ffffffff16565b9050610c8d565b610c8a6003610c7c6003610c6e8787610dfd90919063ffffffff16565b610cbd90919063ffffffff16565b610cde90919063ffffffff16565b90505b92915050565b600080600083111515610ca557600080fd5b8284811515610cb057fe5b0490508091505092915050565b6000808284019050838110151515610cd457600080fd5b8091505092915050565b6000808214151515610cef57600080fd5b8183811515610cfa57fe5b06905092915050565b600073ffffffffffffffffffffffffffffffffffffffff168173ffffffffffffffffffffffffffffffffffffffff1614151515610d3f57600080fd5b8073ffffffffffffffffffffffffffffffffffffffff166000809054906101000a900473ffffffffffffffffffffffffffffffffffffffff1673ffffffffffffffffffffffffffffffffffffffff167f8be0079c531659141344cd1fd0a4f28419497f9722a3daafe3b4186f6b6457e060405160405180910390a3806000806101000a81548173ffffffffffffffffffffffffffffffffffffffff021916908373ffffffffffffffffffffffffffffffffffffffff16021790555050565b600080838311151515610e0f57600080fd5b828403905080915050929150505600a165627a7a7230582087436d69a375aeb4ef8917613250b71d93fc48b43c4a57d760bd334d3a9ce8ff0029",
  "source": "pragma solidity ^0.4.24;\n\nimport '../node_modules/openzeppelin-solidity/contracts/ownership/Ownable.sol';\nimport '../node_modules/openzeppelin-solidity/contracts/math/SafeMath.sol';\n\ncontract RockPaperScissors is Ownable {\n\n  using SafeMath for uint;\n\n  address donationAddress;\n  uint totalAmountOfDonation;\n  mapping(address => uint) public userTotalAmountOfDonation;\n  event RpsResult(uint indexed _result, uint _sendAmount);\n\n  function setDonationAddress(address _account) external onlyOwner() {\n    donationAddress = _account;\n  }\n\n  // checkよりgetだな\n  function checkDonationAddress() external view returns(address) {\n    return donationAddress;\n  }\n\n  function getTotalAmountOfDonation() external view returns(uint) {\n    return totalAmountOfDonation;\n  }\n\n  function getUserTotalAmountOfDonation(address _userAddress) external view returns(uint) {\n    return userTotalAmountOfDonation[_userAddress];\n  }\n\n  modifier affordPay() {\n    require(msg.sender.balance >= msg.value, \"You don't have enough eth!!\");\n    _;\n  }\n\n  function canStart(uint _price) external view returns(bool) {\n    if (msg.sender.balance >= _price.mul(2)) {\n      return true;\n    } else {\n      return false;\n    }\n  }\n\n  //function random() private view returns (uint) {\n  function random(uint _num) public view returns (uint) {\n    uint randomHash = uint(keccak256(abi.encodePacked(block.difficulty, block.timestamp, _num)));\n    return randomHash.mod(3);\n  }\n\n  function rpsCalc(uint _userHand, uint _randHand) private pure returns (uint) {\n    if (_userHand > _randHand) {\n      return (_userHand.sub(_randHand).add(3)).mod(3);\n    } else {\n      return (_randHand.sub(_userHand).add(3)).mod(3);\n    }\n  }\n\n  function rockPaperScissors(uint _userHand, uint _num) external affordPay() payable {\n    uint randHand = random(_num);\n    uint result = rpsCalc(_userHand, randHand);\n\n    if (result == 1) {\n      // LOSE\n      donationAddress.transfer(msg.value.div(2));\n      msg.sender.transfer(msg.value.div(2));\n      totalAmountOfDonation = totalAmountOfDonation.add(msg.value.div(2));\n      userTotalAmountOfDonation[msg.sender] = userTotalAmountOfDonation[msg.sender].add(msg.value.div(2));\n      emit RpsResult(1, msg.value.div(2));\n    } else if (result == 2) {\n      // WIN\n      donationAddress.transfer(msg.value);\n      totalAmountOfDonation = totalAmountOfDonation.add(msg.value);\n      userTotalAmountOfDonation[msg.sender] = userTotalAmountOfDonation[msg.sender].add(msg.value);\n      emit RpsResult(2, msg.value);\n    } else if (result == 0){\n      // DRAW\n      msg.sender.transfer(msg.value);\n      emit RpsResult(0, 0);\n    } else {\n      // if result is not 0,1,2 means Error.\n      revert();\n    }\n  }\n\n}\n",
  "sourcePath": "/mnt/c/react-apps/otokogi/contracts/RockPaperScissors.sol",
  "compiler": {
    "name": "solc",
    "version": "0.4.24+commit.e67f0147.Emscripten.clang"
  },
  "schemaVersion": "2.0.1",
  "updatedAt": "2018-11-03T07:18:54.302Z"
}