{
  "contractName": "RockPaperScissors",
  "abi": [
    {
      "constant": true,
      "inputs": [
        {
          "name": "",
          "type": "address"
        }
      ],
      "name": "userTotalAmountOfDonation",
      "outputs": [
        {
          "name": "",
          "type": "uint256"
        }
      ],
      "payable": false,
      "stateMutability": "view",
      "type": "function"
    },
    {
      "constant": false,
      "inputs": [],
      "name": "renounceOwnership",
      "outputs": [],
      "payable": false,
      "stateMutability": "nonpayable",
      "type": "function"
    },
    {
      "constant": true,
      "inputs": [],
      "name": "owner",
      "outputs": [
        {
          "name": "",
          "type": "address"
        }
      ],
      "payable": false,
      "stateMutability": "view",
      "type": "function"
    },
    {
      "constant": true,
      "inputs": [],
      "name": "isOwner",
      "outputs": [
        {
          "name": "",
          "type": "bool"
        }
      ],
      "payable": false,
      "stateMutability": "view",
      "type": "function"
    },
    {
      "constant": false,
      "inputs": [
        {
          "name": "newOwner",
          "type": "address"
        }
      ],
      "name": "transferOwnership",
      "outputs": [],
      "payable": false,
      "stateMutability": "nonpayable",
      "type": "function"
    },
    {
      "anonymous": false,
      "inputs": [
        {
          "indexed": true,
          "name": "_address",
          "type": "address"
        },
        {
          "indexed": true,
          "name": "_result",
          "type": "uint256"
        },
        {
          "indexed": false,
          "name": "_sendAmount",
          "type": "uint256"
        }
      ],
      "name": "RpsResult",
      "type": "event"
    },
    {
      "anonymous": false,
      "inputs": [
        {
          "indexed": true,
          "name": "previousOwner",
          "type": "address"
        },
        {
          "indexed": true,
          "name": "newOwner",
          "type": "address"
        }
      ],
      "name": "OwnershipTransferred",
      "type": "event"
    },
    {
      "constant": false,
      "inputs": [
        {
          "name": "_account",
          "type": "address"
        }
      ],
      "name": "setDonationAddress",
      "outputs": [],
      "payable": false,
      "stateMutability": "nonpayable",
      "type": "function"
    },
    {
      "constant": true,
      "inputs": [],
      "name": "checkDonationAddress",
      "outputs": [
        {
          "name": "",
          "type": "address"
        }
      ],
      "payable": false,
      "stateMutability": "view",
      "type": "function"
    },
    {
      "constant": true,
      "inputs": [],
      "name": "getTotalAmountOfDonation",
      "outputs": [
        {
          "name": "",
          "type": "uint256"
        }
      ],
      "payable": false,
      "stateMutability": "view",
      "type": "function"
    },
    {
      "constant": true,
      "inputs": [
        {
          "name": "_userAddress",
          "type": "address"
        }
      ],
      "name": "getUserTotalAmountOfDonation",
      "outputs": [
        {
          "name": "",
          "type": "uint256"
        }
      ],
      "payable": false,
      "stateMutability": "view",
      "type": "function"
    },
    {
      "constant": true,
      "inputs": [
        {
          "name": "_price",
          "type": "uint256"
        }
      ],
      "name": "canStart",
      "outputs": [
        {
          "name": "",
          "type": "bool"
        }
      ],
      "payable": false,
      "stateMutability": "view",
      "type": "function"
    },
    {
      "constant": false,
      "inputs": [
        {
          "name": "_userHand",
          "type": "uint256"
        },
        {
          "name": "_num",
          "type": "uint256"
        }
      ],
      "name": "rockPaperScissors",
      "outputs": [],
      "payable": true,
      "stateMutability": "payable",
      "type": "function"
    }
  ],
  "bytecode": "0x6080604052336000806101000a81548173ffffffffffffffffffffffffffffffffffffffff021916908373ffffffffffffffffffffffffffffffffffffffff1602179055506000809054906101000a900473ffffffffffffffffffffffffffffffffffffffff1673ffffffffffffffffffffffffffffffffffffffff16600073ffffffffffffffffffffffffffffffffffffffff167f8be0079c531659141344cd1fd0a4f28419497f9722a3daafe3b4186f6b6457e060405160405180910390a3610db4806100cf6000396000f3006080604052600436106100af576000357c0100000000000000000000000000000000000000000000000000000000900463ffffffff168063120eebca146100b4578063296be0e51461010b5780636f48e79b14610150578063715018a61461019357806385d14a55146101aa5780638da5cb5b146102015780638f32d59b14610258578063934e173614610287578063c342f86f146102b1578063deb3bea414610308578063f2fde38b14610333575b600080fd5b3480156100c057600080fd5b506100f5600480360381019080803573ffffffffffffffffffffffffffffffffffffffff169060200190929190505050610376565b6040518082815260200191505060405180910390f35b34801561011757600080fd5b506101366004803603810190808035906020019092919050505061038e565b604051808215151515815260200191505060405180910390f35b34801561015c57600080fd5b50610191600480360381019080803573ffffffffffffffffffffffffffffffffffffffff1690602001909291905050506103d6565b005b34801561019f57600080fd5b506101a861042d565b005b3480156101b657600080fd5b506101eb600480360381019080803573ffffffffffffffffffffffffffffffffffffffff1690602001909291905050506104ff565b6040518082815260200191505060405180910390f35b34801561020d57600080fd5b50610216610548565b604051808273ffffffffffffffffffffffffffffffffffffffff1673ffffffffffffffffffffffffffffffffffffffff16815260200191505060405180910390f35b34801561026457600080fd5b5061026d610571565b604051808215151515815260200191505060405180910390f35b6102af60048036038101908080359060200190929190803590602001909291905050506105c8565b005b3480156102bd57600080fd5b506102c6610a29565b604051808273ffffffffffffffffffffffffffffffffffffffff1673ffffffffffffffffffffffffffffffffffffffff16815260200191505060405180910390f35b34801561031457600080fd5b5061031d610a53565b6040518082815260200191505060405180910390f35b34801561033f57600080fd5b50610374600480360381019080803573ffffffffffffffffffffffffffffffffffffffff169060200190929190505050610a5d565b005b60036020528060005260406000206000915090505481565b60006103a4600283610a7c90919063ffffffff16565b3373ffffffffffffffffffffffffffffffffffffffff16311015156103cc57600190506103d1565b600090505b919050565b6103de610571565b15156103e957600080fd5b80600160006101000a81548173ffffffffffffffffffffffffffffffffffffffff021916908373ffffffffffffffffffffffffffffffffffffffff16021790555050565b610435610571565b151561044057600080fd5b600073ffffffffffffffffffffffffffffffffffffffff166000809054906101000a900473ffffffffffffffffffffffffffffffffffffffff1673ffffffffffffffffffffffffffffffffffffffff167f8be0079c531659141344cd1fd0a4f28419497f9722a3daafe3b4186f6b6457e060405160405180910390a360008060006101000a81548173ffffffffffffffffffffffffffffffffffffffff021916908373ffffffffffffffffffffffffffffffffffffffff160217905550565b6000600360008373ffffffffffffffffffffffffffffffffffffffff1673ffffffffffffffffffffffffffffffffffffffff168152602001908152602001600020549050919050565b60008060009054906101000a900473ffffffffffffffffffffffffffffffffffffffff16905090565b60008060009054906101000a900473ffffffffffffffffffffffffffffffffffffffff1673ffffffffffffffffffffffffffffffffffffffff163373ffffffffffffffffffffffffffffffffffffffff1614905090565b6000806105d483610aba565b91506105e08483610b71565b905060018114156107ff57600160009054906101000a900473ffffffffffffffffffffffffffffffffffffffff1673ffffffffffffffffffffffffffffffffffffffff166108fc61063b600234610bfd90919063ffffffff16565b9081150290604051600060405180830381858888f19350505050158015610666573d6000803e3d6000fd5b503373ffffffffffffffffffffffffffffffffffffffff166108fc610695600234610bfd90919063ffffffff16565b9081150290604051600060405180830381858888f193505050501580156106c0573d6000803e3d6000fd5b506106e96106d8600234610bfd90919063ffffffff16565b600254610c2790919063ffffffff16565b600281905550610754610706600234610bfd90919063ffffffff16565b600360003373ffffffffffffffffffffffffffffffffffffffff1673ffffffffffffffffffffffffffffffffffffffff16815260200190815260200160002054610c2790919063ffffffff16565b600360003373ffffffffffffffffffffffffffffffffffffffff1673ffffffffffffffffffffffffffffffffffffffff1681526020019081526020016000208190555060013373ffffffffffffffffffffffffffffffffffffffff167f2eb5b5148a6bcfea0ef7825cf8b475186dc9f7a32a70908559d34fe5fd2a3b336107e5600234610bfd90919063ffffffff16565b6040518082815260200191505060405180910390a3610a23565b600281141561097657600160009054906101000a900473ffffffffffffffffffffffffffffffffffffffff1673ffffffffffffffffffffffffffffffffffffffff166108fc349081150290604051600060405180830381858888f19350505050158015610870573d6000803e3d6000fd5b5061088634600254610c2790919063ffffffff16565b6002819055506108de34600360003373ffffffffffffffffffffffffffffffffffffffff1673ffffffffffffffffffffffffffffffffffffffff16815260200190815260200160002054610c2790919063ffffffff16565b600360003373ffffffffffffffffffffffffffffffffffffffff1673ffffffffffffffffffffffffffffffffffffffff1681526020019081526020016000208190555060023373ffffffffffffffffffffffffffffffffffffffff167f2eb5b5148a6bcfea0ef7825cf8b475186dc9f7a32a70908559d34fe5fd2a3b33346040518082815260200191505060405180910390a3610a22565b6000811415610a1c573373ffffffffffffffffffffffffffffffffffffffff166108fc349081150290604051600060405180830381858888f193505050501580156109c5573d6000803e3d6000fd5b5060003373ffffffffffffffffffffffffffffffffffffffff167f2eb5b5148a6bcfea0ef7825cf8b475186dc9f7a32a70908559d34fe5fd2a3b3360006040518082815260200191505060405180910390a3610a21565b600080fd5b5b5b50505050565b6000600160009054906101000a900473ffffffffffffffffffffffffffffffffffffffff16905090565b6000600254905090565b610a65610571565b1515610a7057600080fd5b610a7981610c48565b50565b6000806000841415610a915760009150610ab3565b8284029050828482811515610aa257fe5b04141515610aaf57600080fd5b8091505b5092915050565b6000804442846040516020018084815260200183815260200182815260200193505050506040516020818303038152906040526040518082805190602001908083835b602083101515610b225780518252602082019150602081019050602083039250610afd565b6001836020036101000a0380198251168184511680821785525050505050509050019150506040518091039020600190049050610b69600382610d4290919063ffffffff16565b915050919050565b600081831115610bbb57610bb46003610ba66003610b988688610d6790919063ffffffff16565b610c2790919063ffffffff16565b610d4290919063ffffffff16565b9050610bf7565b610bf46003610be66003610bd88787610d6790919063ffffffff16565b610c2790919063ffffffff16565b610d4290919063ffffffff16565b90505b92915050565b600080600083111515610c0f57600080fd5b8284811515610c1a57fe5b0490508091505092915050565b6000808284019050838110151515610c3e57600080fd5b8091505092915050565b600073ffffffffffffffffffffffffffffffffffffffff168173ffffffffffffffffffffffffffffffffffffffff1614151515610c8457600080fd5b8073ffffffffffffffffffffffffffffffffffffffff166000809054906101000a900473ffffffffffffffffffffffffffffffffffffffff1673ffffffffffffffffffffffffffffffffffffffff167f8be0079c531659141344cd1fd0a4f28419497f9722a3daafe3b4186f6b6457e060405160405180910390a3806000806101000a81548173ffffffffffffffffffffffffffffffffffffffff021916908373ffffffffffffffffffffffffffffffffffffffff16021790555050565b6000808214151515610d5357600080fd5b8183811515610d5e57fe5b06905092915050565b600080838311151515610d7957600080fd5b828403905080915050929150505600a165627a7a72305820ad36a6efc0a13bc8834a67289b620d3a5623bb478e8df8697371466615d96caf0029",
  "source": "pragma solidity ^0.4.24;\n\nimport '../node_modules/openzeppelin-solidity/contracts/ownership/Ownable.sol';\nimport '../node_modules/openzeppelin-solidity/contracts/math/SafeMath.sol';\n\ncontract RockPaperScissors is Ownable {\n\n  using SafeMath for uint;\n\n  address donationAddress;\n  uint totalAmountOfDonation;\n  mapping(address => uint) public userTotalAmountOfDonation;\n  event RpsResult(address indexed _address, uint indexed _result, uint _sendAmount);\n\n  function setDonationAddress(address _account) external onlyOwner() {\n    donationAddress = _account;\n  }\n\n  function checkDonationAddress() external view returns(address) {\n    return donationAddress;\n  }\n\n  function getTotalAmountOfDonation() external view returns(uint) {\n    return totalAmountOfDonation;\n  }\n\n  function getUserTotalAmountOfDonation(address _userAddress) external view returns(uint) {\n    return userTotalAmountOfDonation[_userAddress];\n  }\n\n  function canStart(uint _price) external view returns(bool) {\n    if (msg.sender.balance >= _price.mul(2)) {\n      return true;\n    } else {\n      return false;\n    }\n  }\n\n  function random(uint _num) private view returns (uint) {\n    uint randomHash = uint(keccak256(abi.encodePacked(block.difficulty, block.timestamp, _num)));\n    return randomHash.mod(3);\n  }\n\n  function rpsCalc(uint _userHand, uint _randHand) private pure returns (uint) {\n    if (_userHand > _randHand) {\n      return (_userHand.sub(_randHand).add(3)).mod(3);\n    } else {\n      return (_randHand.sub(_userHand).add(3)).mod(3);\n    }\n  }\n\n  function rockPaperScissors(uint _userHand, uint _num) external payable {\n    uint randHand = random(_num);\n    uint result = rpsCalc(_userHand, randHand);\n\n    if (result == 1) {\n      // LOSE\n      donationAddress.transfer(msg.value.div(2));\n      msg.sender.transfer(msg.value.div(2));\n      totalAmountOfDonation = totalAmountOfDonation.add(msg.value.div(2));\n      userTotalAmountOfDonation[msg.sender] = userTotalAmountOfDonation[msg.sender].add(msg.value.div(2));\n      emit RpsResult(msg.sender, 1, msg.value.div(2));\n    } else if (result == 2) {\n      // WIN\n      donationAddress.transfer(msg.value);\n      totalAmountOfDonation = totalAmountOfDonation.add(msg.value);\n      userTotalAmountOfDonation[msg.sender] = userTotalAmountOfDonation[msg.sender].add(msg.value);\n      emit RpsResult(msg.sender, 2, msg.value);\n    } else if (result == 0){\n      // DRAW\n      msg.sender.transfer(msg.value);\n      emit RpsResult(msg.sender, 0, 0);\n    } else {\n      // if result is not 0,1,2 means Error.\n      revert();\n    }\n  }\n\n}\n",
  "sourcePath": "/mnt/c/react-apps/otokogi/contracts/RockPaperScissors.sol",
  "compiler": {
    "name": "solc",
    "version": "0.4.24+commit.e67f0147.Emscripten.clang"
  },
  "schemaVersion": "2.0.1",
  "updatedAt": "2018-11-18T03:05:00.595Z"
}